:060000000A128A110F290B
:10000800F000030EF1000B190E20710E8300F00EA4
:10001800700E090003138312E83081000B11A00A47
:1000280020080A3C031D0800A001051A8501850A5D
:100038000508002188000A30050203192420080059
:100048008501A20A2208002187000630220203192E
:0A0058002E2008008701A201080015
:100200008A010A1482073F3406345B344F34663463
:100210006D347D3407347F346F343F340800162149
:1002200025212C2139210313831215298316031745
:1002300088018901831603138701880185018312D0
:1002400003138801850187010800031383160F1328
:100250008F160F120F1408000313831681128111D9
:1002600001158114011403138312E83081000B116E
:0A02700008008B178B160B11080015
:04400E00D420FF3F7C
:00000001FF
